:100000000C9492000C94B1000C94B1000C94B100CB
:100010000C94B1000C94B1000C94B1000C94B1009C
:100020000C94B1000C94B1000C94B1000C94B1008C
:100030000C94B1000C9471020C94B1000C94B100BA
:100040000C94B1000C94B1000C94B1000C94B1006C
:100050000C94B1000C94B1000C94B1000C94B1005C
:100060000C94B1000C94B1000C94B1000C94B1004C
:100070000C94B1000C94B1000C94B1000C94B1003C
:100080000C94B1000C94B1000C94B100F70304047B
:10009000180446046B049604BA04E5042205D3054B
:1000A000FE0522064D0671069C06CB06F5062007C6
:1000B00044076F079307BE07E9074B085D088808E8
:1000C000AC08D708FB0826095509400A520A7D0AE0
:1000D000A10ACC0AF00A1B0B140C630B680B6D0B06
:1000E000720B770B7C0B810B860B8B0B900B950B9C
:1000F0009A0B9F0BA40BA90BAE0BB30BB80BBD0B4C
:10010000C20BC70B140CCC0BD10BD60BDB0BE00BCB
:10011000E50BEA0B140CEF0BF40BF90BFE0B030CC5
:10012000080C0D0C11241FBECFEFD0E4DEBFCDBFF5
:1001300011E0A0E0B1E0EEECF8E100E00BBF02C09E
:1001400007900D92A436B107D9F721E0A4E6B1E0FB
:1001500001C01D92A937B207E1F70E94190C0C9457
:10016000650C0C940000CF93DF93CDB7DEB781E030
:100170000E94DA000000DF91CF910895CF93DF93C2
:10018000CDB7DEB784E690E00E947E0188E30E944E
:10019000DA0086E00E94DA008FE00E94DA0081E057
:1001A0000E94DA008AE090E00E947E010000DF9168
:1001B000CF910895CF93DF931F92CDB7DEB7898398
:1001C0008BE290E02BE230E0F90120812F7BFC01F3
:1001D000208388E290E02981FC0120838BE290E07B
:1001E0002BE230E0F90120812068FC01208300002F
:1001F0008BE290E02BE230E0F90120812F77FC01C7
:10020000208382E090E00E947E0100000F90DF9149
:10021000CF910895CF93DF931F92CDB7DEB7898337
:100220008BE290E02BE230E0F90120812064FC01B8
:10023000208388E290E02981FC0120838BE290E01A
:100240002BE230E0F90120812068FC0120830000CE
:100250008BE290E02BE230E0F90120812F77FC0166
:10026000208381E090E00E947E0100000F90DF91EA
:10027000CF910895CF93DF9300D000D0CDB7DEB7F4
:100280008A837C836B830E94B3008A81898311C037
:10029000898191E0980F99830E9467018B819C81ED
:1002A0009C012F5F3F4F3C832B83FC0180810E9488
:1002B0000A018B819C81FC018081882349F7000021
:1002C0000F900F900F900F90DF91CF910895CF93E3
:1002D000DF931F92CDB7DEB789838981813128F4FE
:1002E000898181580E94DA0004C0898181550E9469
:1002F000DA0000000F90DF91CF910895CF93DF9344
:1003000000D000D000D0CDB7DEB79E838D831A8297
:10031000198213C01C821B8206C000008B819C8145
:1003200001969C838B838B819C8187309340ACF3B7
:1003300089819A8101969A83898329813A818D8165
:100340009E812817390734F3000026960FB6F894DB
:10035000DEBF0FBECDBFDF91CF910895CF93DF9366
:1003600000D01F92CDB7DEB789836A834B838B8120
:10037000882371F08A81282F30E081E090E002C06C
:10038000880F991F2A95E2F7982F8981892B0EC033
:100390008A81282F30E081E090E002C0880F991F09
:1003A0002A95E2F7982F9095898189230F900F90D5
:1003B0000F90DF91CF910895CF93DF9300D0CDB709
:1003C000DEB789836A838A81282F30E081E090E05C
:1003D00002C0880F991F2A95E2F7982F89818923F7
:1003E0000F900F90DF91CF910895CF93DF9300D0BE
:1003F00000D0CDB7DEB769837A838B839C838981F4
:100400009A81AB81BC818093000190930101A093FC
:100410000201B09303018091000190910101A0912C
:100420000201B09103018093650190936601A0934E
:100430006701B093680100000F900F900F900F902C
:10044000DF91CF910895CF93DF93CDB7DEB781E8E9
:1004500090E02BE0FC01208388E890E02DE730E07D
:10046000FC01318320838FE690E022E0FC012083B1
:1004700084E890E0FC01118210828091000190914B
:100480000101A0910201B091030180936501909355
:100490006601A0936701B09368018FE590E02FE5B6
:1004A00030E0F90120812068FC0120830000DF9109
:1004B000CF910895CF93DF93CDB7DEB781E890E079
:1004C000FC0110820000DF91CF910895CF93DF935C
:1004D000CDB7DEB781E0809364010000DF91CF915A
:1004E00008951F920F9200905F000F9211240090C8
:1004F0005B000F922F933F934F935F936F937F9384
:100500008F939F93AF93BF93EF93FF93CF93DF931B
:10051000CDB7DEB78091650190916601A09167012A
:10052000B09168010197A109B10980936501909389
:100530006601A0936701B093680180916501909175
:100540006601A0916701B0916801892B8A2B8B2BE2
:1005500091F40E9466028091000190910101A091A6
:100560000201B09103018093650190936601A0930D
:100570006701B09368010000DF91CF91FF91EF9187
:10058000BF91AF919F918F917F916F915F914F91AB
:100590003F912F910F9000925B000F9000925F00AF
:1005A0000F901F901895CF93DF9300D01F92CDB777
:1005B000DEB789837B836A8389818A3031F48A81BB
:1005C0009B81BC018DE00E94D30280EC90E0FC0195
:1005D0008081882F90E080729927892BB1F386EC77
:1005E00090E02981FC01208380E090E00F900F9043
:1005F0000F90DF91CF910895CF93DF93CDB7DEB702
:1006000085E290E02FEEFC012083000083E290E081
:10061000FC01808160E00E94DC01882311F481E309
:10062000B8C083E290E0FC01808161E00E94DC01BF
:10063000882311F484E3ADC083E290E0FC01808163
:1006400062E00E94DC01882311F487E3A2C083E208
:1006500090E0FC01808163E00E94DC01882311F4BA
:100660008AE297C085E290E02FEDFC012083000034
:1006700083E290E0FC01808160E00E94DC0188233D
:1006800011F482E386C083E290E0FC01808161E0A6
:100690000E94DC01882311F485E37BC083E290E0B3
:1006A000FC01808162E00E94DC01882311F488E370
:1006B00070C083E290E0FC01808163E00E94DC0175
:1006C000882311F480E365C085E290E02FEBFC0104
:1006D0002083000083E290E0FC01808160E00E94C2
:1006E000DC01882311F483E354C083E290E0FC0131
:1006F000808161E00E94DC01882311F486E349C017
:1007000083E290E0FC01808162E00E94DC018823AA
:1007100011F489E33EC083E290E0FC01808163E054
:100720000E94DC01882311F483E233C085E290E06B
:100730002FE7FC012083000083E290E0FC01808130
:1007400060E00E94DC01882311F481E422C083E28E
:1007500090E0FC01808161E00E94DC01882311F4BB
:1007600082E417C083E290E0FC01808162E00E9495
:10077000DC01882311F483E40CC083E290E0FC01E7
:10078000808163E00E94DC01882311F484E401C0CD
:1007900080E0DF91CF910895CF93DF93CDB7DEB79F
:1007A0008AE790E02AE730E0F9012081206EFC0121
:1007B00020830000DF91CF910895CF93DF93CDB7D1
:1007C000DEB78091730190917401CC01A0E0B0E09C
:1007D00040E050E025E230E0841B950B28173907F4
:1007E00008F458C78A5B9F4FFC010C945C0C62E1D3
:1007F00071E081E00E943A0181E090E09093740101
:10080000809373010C944D0B80916A01813341F404
:1008100082E090E090937401809373010C944D0BEF
:1008200081E090E090937401809373010C944D0BE0
:1008300081E10E9467018AE290E00E940A018091B2
:100840006A01813341F482E090E0909374018093D7
:1008500073010C944D0B80916A01882341F483E06D
:1008600090E090937401809373010C944D0B0E945F
:10087000B30062E171E081E00E943A0181E090E022
:1008800090937401809373010C944D0B80916A01D5
:10089000882341F483E090E0909374018093730186
:1008A0000C944D0B80916A01823339F484E090E01E
:1008B0009093740180937301F0C60E94B30062E1CB
:1008C00071E081E00E943A0181E090E09093740130
:1008D00080937301E2C682E10E9467018AE290E0A0
:1008E0000E940A0180916A01823339F484E090E029
:1008F0009093740180937301D0C680916A0188231C
:1009000039F485E090E09093740180937301C5C63B
:100910000E94B30062E171E081E00E943A0181E04F
:1009200090E09093740180937301B7C680916A013F
:10093000882339F485E090E09093740180937301EB
:10094000ACC680916A01833339F486E090E09093DD
:10095000740180937301A1C60E94B30062E171E04B
:1009600081E00E943A0181E090E0909374018093CD
:10097000730193C683E10E9467018AE290E00E94BE
:100980000A0180916A01833339F486E090E0909304
:1009900074018093730181C680916A01882339F4C0
:1009A00087E090E0909374018093730176C60E9473
:1009B000B30062E171E081E00E943A0181E090E0E1
:1009C000909374018093730168C680916A018823B3
:1009D00039F487E090E090937401809373015DC6D1
:1009E00080916A01833271F40E94B3006BE171E07F
:1009F00081E00E943A0188E090E090937401809336
:100A000073014BC680916A018A3271F40E94B3006F
:100A100068E271E081E00E943A018FE090E09093FB
:100A200074018093730139C60E94B30062E171E0E2
:100A300081E00E943A0181E090E0909374018093FC
:100A400073012BC60E94CC0380916A01813309F4A3
:100A500098C088E790E0FC018081918190937601B5
:100A6000809375018AEA90E09093720180937101FE
:100A70008FE190E09093780180937701209171014C
:100A8000309172018091770190917801A901481B02
:100A9000590BCA0196958795969587959093700105
:100AA00080936F0189E290E0FC018081882F90E0C3
:100AB00080719927892B91F482E290E0FC011082E9
:100AC0000E94B30065E371E081E00E943A018EE18B
:100AD00090E09093740180937301DFC520916F01C2
:100AE000309170018091770190917801280F391F22
:100AF00080917501909176012817390730F082E2D4
:100B000090E022E4FC012083C8C580916F019091A0
:100B100070019C01220F331F809177019091780121
:100B2000280F391F80917501909176012817390798
:100B300030F082E290E026E2FC012083AEC52091F5
:100B40006F0130917001C901880F991F280F391F5B
:100B50008091770190917801280F391F809175015C
:100B6000909176012817390730F082E290E02EE06C
:100B7000FC01208392C582E290E02EE1FC012083FB
:100B80008CC580916A01813339F489E090E09093BB
:100B900074018093730181C588E090E090937401A3
:100BA000809373017AC581E10E9467018AE290E037
:100BB0000E940A0180916A01813339F489E090E052
:100BC000909374018093730168C580916A018823B2
:100BD00039F48AE090E090937401809373015DC5CD
:100BE0000E94B3006BE171E081E00E943A0188E06D
:100BF00090E090937401809373014FC580916A01D6
:100C0000882339F48AE090E0909374018093730113
:100C100044C580916A01823339F48BE090E090936F
:100C200074018093730139C50E94B3006BE171E0D8
:100C300081E00E943A0188E090E0909374018093F3
:100C400073012BC582E10E9467018AE290E00E9455
:100C50000A0180916A01823339F48BE090E090932D
:100C600074018093730119C580916A01882339F456
:100C70008CE090E090937401809373010EC50E9404
:100C8000B3006BE171E081E00E943A0188E090E0FE
:100C9000909374018093730100C580916A01882349
:100CA00039F48CE090E09093740180937301F5C463
:100CB00080916A01833339F48DE090E09093740160
:100CC00080937301EAC40E94B3006BE171E081E09C
:100CD0000E943A0188E090E0909374018093730140
:100CE000DCC483E10E9467018AE290E00E940A016D
:100CF00080916A01833339F48DE090E09093740120
:100D000080937301CAC480916A01882339F48EE00C
:100D100090E09093740180937301BFC40E94B3006C
:100D20006BE171E081E00E943A0188E090E09093ED
:100D3000740180937301B1C480916A01882339F4EE
:100D40008EE090E09093740180937301A6C480912B
:100D50006A01803391F482E290E0FC0110820E94EB
:100D6000B30062E171E081E00E943A0181E090E02D
:100D7000909374018093730190C40E94B3006BE15F
:100D800071E081E00E943A0188E090E09093740164
:100D90008093730182C489E290E0FC018081882FF6
:100DA00090E080719927892B71F40E94B3006EE462
:100DB00071E081E00E943A0186E190E09093740135
:100DC000809373016AC480916A01813339F480E1B0
:100DD00090E090937401809373015FC48FE090E082
:100DE000909374018093730158C481E10E9467015C
:100DF0008AE290E00E940A0180916A01813339F40D
:100E000080E190E0909374018093730146C48091D7
:100E10006A01882339F481E190E090937401809312
:100E200073013BC40E94B30068E271E081E00E945C
:100E30003A018FE090E090937401809373012DC488
:100E400080916A01882339F481E190E090937401E4
:100E50008093730122C480916A01823339F482E164
:100E600090E0909374018093730117C40E94B300C3
:100E700068E271E081E00E943A018FE090E0909397
:100E800074018093730109C482E10E9467018AE2C0
:100E900090E00E940A0180916A01823339F482E174
:100EA00090E09093740180937301F7C380916A017D
:100EB000882339F483E190E0909374018093730167
:100EC000ECC30E94B30068E271E081E00E943A0145
:100ED0008FE090E09093740180937301DEC3809162
:100EE0006A01882339F483E190E090937401809340
:100EF0007301D3C380916A01833339F484E190E0B4
:100F00009093740180937301C8C30E94B30068E298
:100F100071E081E00E943A018FE090E090937401CB
:100F200080937301BAC383E10E9467018AE290E073
:100F30000E940A0180916A01833339F484E190E0D0
:100F40009093740180937301A8C380916A018823F0
:100F500039F485E190E090937401809373019DC30F
:100F60000E94B30068E271E081E00E943A018FE0E4
:100F700090E090937401809373018FC380916A0114
:100F8000882339F485E190E0909374018093730194
:100F900084C380916A01803371F40E94B30062E1DE
:100FA00071E081E00E943A0181E090E09093740149
:100FB0008093730172C30E94B30068E271E081E024
:100FC0000E943A018FE090E0909374018093730146
:100FD00064C3809169018F5F809369018091690189
:100FE0008170882359F182E290E020EEFC01208399
:100FF00089E290E0FC018081882F90E080959095B7
:101000008F709927099799F482E290E022E1FC0120
:1010100020830E94B30067E571E081E00E943A01FD
:1010200087E190E0909374018093730136C386E169
:1010300090E090937401809373012FC31092690123
:1010400082E290E020E6FC01208389E290E0FC014E
:101050008081882F90E0809590958F7099270997CF
:1010600099F482E290E022E1FC0120830E94B30027
:1010700067E571E081E00E943A0187E190E090939A
:1010800074018093730109C386E190E09093740129
:101090008093730102C380916A01813339F488E13E
:1010A00090E09093740180937301F7C287E190E020
:1010B0009093740180937301F0C281E10E946701F3
:1010C0008AE290E00E940A0180916A01813339F43A
:1010D00088E190E09093740180937301DEC2809167
:1010E0006A01882339F489E190E090937401809338
:1010F0007301D3C20E94B30067E571E081E00E94F2
:101100003A0187E190E09093740180937301C5C226
:1011100080916A01882339F489E190E09093740109
:1011200080937301BAC280916A01823339F48AE1F3
:1011300090E09093740180937301AFC20E94B3005A
:1011400067E571E081E00E943A0187E190E09093C9
:10115000740180937301A1C282E10E9467018AE257
:1011600090E00E940A0180916A01823339F48AE199
:1011700090E090937401809373018FC280916A0113
:10118000882339F48BE190E090937401809373018C
:1011900084C20E94B30067E571E081E00E943A01D9
:1011A00087E190E0909374018093730176C28091FF
:1011B0006A01882339F48BE190E090937401809365
:1011C00073016BC280916A01833339F48CE190E042
:1011D000909374018093730160C20E94B30067E52D
:1011E00071E081E00E943A0187E190E09093740100
:1011F0008093730152C283E10E9467018AE290E00A
:101200000E940A0180916A01833339F48CE190E0F5
:10121000909374018093730140C280916A01882386
:1012200039F48DE190E0909374018093730135C29D
:101230000E94B30067E571E081E00E943A0187E116
:1012400090E0909374018093730127C280916A01AA
:10125000882339F48DE190E09093740180937301B9
:101260001CC280916A01803391F482E290E0FC011B
:1012700010820E94B30062E171E081E00E943A01B5
:1012800081E090E0909374018093730106C20E9404
:10129000B30067E571E081E00E943A0187E190E0E8
:1012A0009093740180937301F8C180916B019091C8
:1012B0006C01A0916D01B0916E010196A11DB11D4F
:1012C00080936B0190936C01A0936D01B0936E01BC
:1012D00080916B0190916C01A0916D01B0916E01B4
:1012E00080319742A105B10508F0B4C089E290E0D1
:1012F000FC018081882F90E0809590958F709927D0
:10130000892B39F48EE190E09093740180937301FE
:10131000C3C189E290E0FC018081882F90E0809534
:1013200090958F709927029761F089E290E0FC0117
:101330008081882F90E0809590958F7099270497F1
:10134000D9F410926B0110926C0110926D01109201
:101350006E0182E290E020E1FC0120830E94B30054
:1013600062E171E081E00E943A018FE190E09093A8
:1013700074018093730190C189E290E0FC01808147
:10138000882F90E0809590958F7099270997D9F4D0
:1013900010926B0110926C0110926D0110926E010F
:1013A00082E290E022E1FC0120830E94B30067E525
:1013B00071E081E00E943A0187E190E0909374012E
:1013C0008093730169C189E290E0FC018081882FDC
:1013D00090E0809590958F709927892B29F589E267
:1013E00090E0FC018081882F90E0809590958F702F
:1013F00099270297C9F489E290E0FC018081882F47
:1014000090E0809590958F709927049769F489E210
:1014100090E0FC018081882F90E0809590958F70FE
:101420009927099709F438C110926B0110926C0149
:1014300010926D0110926E010E94B3006EE471E093
:1014400081E00E943A0186E190E0909374018093DC
:10145000730122C110926B0110926C0110926D0108
:1014600010926E010E94B3006EE471E081E00E9470
:101470003A0186E190E090937401809373010CC16E
:1014800080916A01813339F480E290E09093740195
:101490008093730102C18FE190E090937401809377
:1014A0007301FBC081E10E9467018AE290E00E9423
:1014B0000A0180916A01813339F480E290E09093CF
:1014C000740180937301E9C080916A01882339F423
:1014D00081E290E09093740180937301DEC00E94DA
:1014E000B30062E171E081E00E943A018FE190E097
:1014F0009093740180937301D0C080916A01882316
:1015000039F481E290E09093740180937301C5C037
:1015100080916A01823339F482E290E09093740101
:1015200080937301BAC00E94B30062E171E081E070
:101530000E943A018FE190E09093740180937301CF
:10154000ACC082E10E9467018AE290E00E940A0139
:1015500080916A01823339F482E290E090937401C1
:10156000809373019AC080916A01882339F483E2E1
:1015700090E090937401809373018FC00E94B30038
:1015800062E171E081E00E943A018FE190E0909386
:1015900074018093730181C080916A01882339F4BA
:1015A00083E290E0909374018093730176C0809100
:1015B0006A01833339F484E290E09093740180935C
:1015C00073016BC00E94B30062E171E081E00E9490
:1015D0003A018FE190E090937401809373015DC0B4
:1015E00083E10E9467018AE290E00E940A018091F3
:1015F0006A01833339F484E290E09093740180931C
:1016000073014BC080916A01882339F485E290E030
:10161000909374018093730140C00E94B30062E113
:1016200071E081E00E943A018FE190E090937401B3
:101630008093730132C080916A01882339F485E276
:1016400090E0909374018093730127C080916A01A8
:10165000803391F482E290E0FC0110820E94B3009A
:1016600062E171E081E00E943A0181E090E09093B4
:1016700074018093730111C00E94B30062E171E0B4
:1016800081E00E943A018FE190E090937401809391
:10169000730103C0000001C00000809173019091AC
:1016A0007401CC01A0E0B0E040E050E025E230E081
:1016B000841B950B2817390708F4B4C084599F4F31
:1016C000FC010C945C0C0E94FC0280936A01ADC08A
:1016D0000E94FC0280936A01A8C00E94FC028093D1
:1016E0006A01A3C00E94FC0280936A019EC00E940E
:1016F000FC0280936A0199C00E94FC0280936A01F7
:1017000094C00E94FC0280936A018FC00E94FC0278
:1017100080936A018AC00E94FC0280936A0185C09E
:101720000E94FC0280936A0180C00E94FC028093A8
:101730006A017BC00E94FC0280936A0176C00E940D
:10174000FC0280936A0171C00E94FC0280936A01CE
:101750006CC00E94FC0280936A0167C00E94FC0278
:1017600080936A0162C00E94FC0280936A015DC09E
:101770000E94FC0280936A0158C00E94FC02809380
:101780006A0153C00E94FC0280936A014EC00E940D
:10179000FC0280936A0149C00E94FC0280936A01A6
:1017A00044C00E94FC0280936A013FC00E94FC0278
:1017B00080936A013AC00E94FC0280936A0135C09E
:1017C0000E94FC0280936A0130C00E94FC02809358
:1017D0006A012BC00E94FC0280936A0126C00E940D
:1017E000FC0280936A0121C00E94FC0280936A017E
:1017F0001CC00E94FC0280936A0117C00E94FC0278
:1018000080936A0112C00E94FC0280936A010DC09D
:101810000E94FC0280936A0108C00E94FC0280932F
:101820006A0103C0000001C000000000DF91CF91F9
:101830000895CF93DF93CDB7DEB781E290E02EEF2E
:10184000FC01208382E290E021E0FC01208384E21D
:1018500090E020EFFC0120838BE290E02FE0FC0180
:10186000208387E290E02FEFFC01208388E290E064
:10187000FC0110828AE290E020EEFC0120838BE2E2
:1018800090E02FE1FC01208310927401109273010B
:101890000E94BE0061E070E080E090E00E94F501EF
:1018A0000E9423020E94DD030000809164018823CE
:1018B000E1F310926401F6CFEE0FFF1F0024001C2D
:0E18C0000BBE0790F691E02D0994F894FFCF2F
:1018CE00010000000000000200000000D302000032
:1018DE00000044697361726D65640041726D6564E8
:1018EE00202D20417761790041726D6564202D2095
:1018FE005374617900506F74656E7469616C202049
:10190E002020202020496E74727564657200496E25
:10191E007472756465720053797374656D205265C7
:04192E007365740069
:00000001FF
